{
  "_format": "hh-sol-artifact-1",
  "contractName": "Staking",
  "sourceName": "contracts/Staking.sol",
  "abi": [
    {
      "inputs": [],
      "stateMutability": "payable",
      "type": "constructor"
    },
    {
      "inputs": [
        {
          "internalType": "uint256",
          "name": "positionId",
          "type": "uint256"
        },
        {
          "internalType": "uint256",
          "name": "newUnlockDate",
          "type": "uint256"
        }
      ],
      "name": "changeUnlockDate",
      "outputs": [],
      "stateMutability": "nonpayable",
      "type": "function"
    },
    {
      "inputs": [
        {
          "internalType": "uint256",
          "name": "positionId",
          "type": "uint256"
        }
      ],
      "name": "closePosition",
      "outputs": [],
      "stateMutability": "nonpayable",
      "type": "function"
    },
    {
      "inputs": [],
      "name": "currentPositionId",
      "outputs": [
        {
          "internalType": "uint256",
          "name": "",
          "type": "uint256"
        }
      ],
      "stateMutability": "view",
      "type": "function"
    },
    {
      "inputs": [
        {
          "internalType": "uint256",
          "name": "numDays",
          "type": "uint256"
        }
      ],
      "name": "getInterestRate",
      "outputs": [
        {
          "internalType": "uint256",
          "name": "",
          "type": "uint256"
        }
      ],
      "stateMutability": "view",
      "type": "function"
    },
    {
      "inputs": [],
      "name": "getLockPeriods",
      "outputs": [
        {
          "internalType": "uint256[]",
          "name": "",
          "type": "uint256[]"
        }
      ],
      "stateMutability": "view",
      "type": "function"
    },
    {
      "inputs": [
        {
          "internalType": "uint256",
          "name": "positionId",
          "type": "uint256"
        }
      ],
      "name": "getPositionById",
      "outputs": [
        {
          "components": [
            {
              "internalType": "uint256",
              "name": "positionId",
              "type": "uint256"
            },
            {
              "internalType": "address",
              "name": "walletAddress",
              "type": "address"
            },
            {
              "internalType": "uint256",
              "name": "createdDate",
              "type": "uint256"
            },
            {
              "internalType": "uint256",
              "name": "unlockDate",
              "type": "uint256"
            },
            {
              "internalType": "uint256",
              "name": "percentInterest",
              "type": "uint256"
            },
            {
              "internalType": "uint256",
              "name": "weiStaked",
              "type": "uint256"
            },
            {
              "internalType": "uint256",
              "name": "weiInterest",
              "type": "uint256"
            },
            {
              "internalType": "bool",
              "name": "open",
              "type": "bool"
            }
          ],
          "internalType": "struct Staking.Position",
          "name": "",
          "type": "tuple"
        }
      ],
      "stateMutability": "view",
      "type": "function"
    },
    {
      "inputs": [
        {
          "internalType": "address",
          "name": "walletAddress",
          "type": "address"
        }
      ],
      "name": "getPositionIdsForAddress",
      "outputs": [
        {
          "internalType": "uint256[]",
          "name": "",
          "type": "uint256[]"
        }
      ],
      "stateMutability": "view",
      "type": "function"
    },
    {
      "inputs": [
        {
          "internalType": "uint256",
          "name": "",
          "type": "uint256"
        }
      ],
      "name": "lockPeriods",
      "outputs": [
        {
          "internalType": "uint256",
          "name": "",
          "type": "uint256"
        }
      ],
      "stateMutability": "view",
      "type": "function"
    },
    {
      "inputs": [
        {
          "internalType": "uint256",
          "name": "numDays",
          "type": "uint256"
        },
        {
          "internalType": "uint256",
          "name": "basisPoints",
          "type": "uint256"
        }
      ],
      "name": "modifyLockPeriods",
      "outputs": [],
      "stateMutability": "nonpayable",
      "type": "function"
    },
    {
      "inputs": [],
      "name": "owner",
      "outputs": [
        {
          "internalType": "address",
          "name": "",
          "type": "address"
        }
      ],
      "stateMutability": "view",
      "type": "function"
    },
    {
      "inputs": [
        {
          "internalType": "address",
          "name": "",
          "type": "address"
        },
        {
          "internalType": "uint256",
          "name": "",
          "type": "uint256"
        }
      ],
      "name": "positionIdsByAddress",
      "outputs": [
        {
          "internalType": "uint256",
          "name": "",
          "type": "uint256"
        }
      ],
      "stateMutability": "view",
      "type": "function"
    },
    {
      "inputs": [
        {
          "internalType": "uint256",
          "name": "",
          "type": "uint256"
        }
      ],
      "name": "positions",
      "outputs": [
        {
          "internalType": "uint256",
          "name": "positionId",
          "type": "uint256"
        },
        {
          "internalType": "address",
          "name": "walletAddress",
          "type": "address"
        },
        {
          "internalType": "uint256",
          "name": "createdDate",
          "type": "uint256"
        },
        {
          "internalType": "uint256",
          "name": "unlockDate",
          "type": "uint256"
        },
        {
          "internalType": "uint256",
          "name": "percentInterest",
          "type": "uint256"
        },
        {
          "internalType": "uint256",
          "name": "weiStaked",
          "type": "uint256"
        },
        {
          "internalType": "uint256",
          "name": "weiInterest",
          "type": "uint256"
        },
        {
          "internalType": "bool",
          "name": "open",
          "type": "bool"
        }
      ],
      "stateMutability": "view",
      "type": "function"
    },
    {
      "inputs": [
        {
          "internalType": "uint256",
          "name": "numDays",
          "type": "uint256"
        }
      ],
      "name": "stakeEther",
      "outputs": [],
      "stateMutability": "payable",
      "type": "function"
    },
    {
      "inputs": [
        {
          "internalType": "uint256",
          "name": "",
          "type": "uint256"
        }
      ],
      "name": "tiers",
      "outputs": [
        {
          "internalType": "uint256",
          "name": "",
          "type": "uint256"
        }
      ],
      "stateMutability": "view",
      "type": "function"
    }
  ],
  "bytecode": "0x6080604052336000806101000a81548173ffffffffffffffffffffffffffffffffffffffff021916908373ffffffffffffffffffffffffffffffffffffffff1602179055506102bc60046000601e8152602001908152602001600020819055506103e860046000605a8152602001908152602001600020819055506104b06004600060b48152602001908152602001600020819055506005601e90806001815401808255809150506001900390600052602060002001600090919091909150556005605a9080600181540180825580915050600190039060005260206000200160009091909190915055600560b49080600181540180825580915050600190039060005260206000200160009091909190915055611596806101226000396000f3fe6080604052600436106100dd5760003560e01c80638da5cb5b1161007f578063b0f0475b11610059578063b0f0475b14610301578063b838ec861461032a578063c7c9d05514610367578063e4f9084114610390576100dd565b80638da5cb5b1461026957806399fbab8814610294578063a126d601146102d8576100dd565b806340d98a44116100bb57806340d98a441461018757806341ee13be146101c457806345eae373146101ef5780634c8f2a781461022c576100dd565b8063039af9eb146100e25780630c196a741461011f5780631131c8cd1461015c575b600080fd5b3480156100ee57600080fd5b5061010960048036038101906101049190610d95565b6103ac565b6040516101169190610dd1565b60405180910390f35b34801561012b57600080fd5b5061014660048036038101906101419190610d95565b6103c4565b6040516101539190610dd1565b60405180910390f35b34801561016857600080fd5b506101716103e1565b60405161017e9190610dd1565b60405180910390f35b34801561019357600080fd5b506101ae60048036038101906101a99190610e4a565b6103e7565b6040516101bb9190610f35565b60405180910390f35b3480156101d057600080fd5b506101d961047e565b6040516101e69190610f35565b60405180910390f35b3480156101fb57600080fd5b5061021660048036038101906102119190610f57565b6104d6565b6040516102239190610dd1565b60405180910390f35b34801561023857600080fd5b50610253600480360381019061024e9190610d95565b610507565b6040516102609190610dd1565b60405180910390f35b34801561027557600080fd5b5061027e61052b565b60405161028b9190610fa6565b60405180910390f35b3480156102a057600080fd5b506102bb60048036038101906102b69190610d95565b61054f565b6040516102cf989796959493929190610fdc565b60405180910390f35b3480156102e457600080fd5b506102ff60048036038101906102fa9190610d95565b6105c4565b005b34801561030d57600080fd5b506103286004803603810190610323919061105a565b61084d565b005b34801561033657600080fd5b50610351600480360381019061034c9190610d95565b610920565b60405161035e919061115a565b60405180910390f35b34801561037357600080fd5b5061038e6004803603810190610389919061105a565b6109fb565b005b6103aa60048036038101906103a59190610d95565b610aa8565b005b60046020528060005260406000206000915090505481565b600060046000838152602001908152602001600020549050919050565b60015481565b6060600360008373ffffffffffffffffffffffffffffffffffffffff1673ffffffffffffffffffffffffffffffffffffffff16815260200190815260200160002080548060200260200160405190810160405280929190818152602001828054801561047257602002820191906000526020600020905b81548152602001906001019080831161045e575b50505050509050919050565b606060058054806020026020016040519081016040528092919081815260200182805480156104cc57602002820191906000526020600020905b8154815260200190600101908083116104b8575b5050505050905090565b600360205281600052604060002081815481106104f257600080fd5b90600052602060002001600091509150505481565b6005818154811061051757600080fd5b906000526020600020016000915090505481565b60008054906101000a900473ffffffffffffffffffffffffffffffffffffffff1681565b60026020528060005260406000206000915090508060000154908060010160009054906101000a900473ffffffffffffffffffffffffffffffffffffffff16908060020154908060030154908060040154908060050154908060060154908060070160009054906101000a900460ff16905088565b3373ffffffffffffffffffffffffffffffffffffffff166002600083815260200190815260200160002060010160009054906101000a900473ffffffffffffffffffffffffffffffffffffffff1673ffffffffffffffffffffffffffffffffffffffff1614610668576040517f08c379a000000000000000000000000000000000000000000000000000000000815260040161065f906111f9565b60405180910390fd5b600115156002600083815260200190815260200160002060070160009054906101000a900460ff161515146106d2576040517f08c379a00000000000000000000000000000000000000000000000000000000081526004016106c990611265565b60405180910390fd5b60006002600083815260200190815260200160002060070160006101000a81548160ff02191690831515021790555060026000828152602001908152602001600020600301544211156107ca5760006002600083815260200190815260200160002060060154600260008481526020019081526020016000206005015461075991906112b4565b90503373ffffffffffffffffffffffffffffffffffffffff168160405161077f90611319565b60006040518083038185875af1925050503d80600081146107bc576040519150601f19603f3d011682016040523d82523d6000602084013e6107c1565b606091505b5050505061084a565b3373ffffffffffffffffffffffffffffffffffffffff16600260008381526020019081526020016000206005015460405161080490611319565b60006040518083038185875af1925050503d8060008114610841576040519150601f19603f3d011682016040523d82523d6000602084013e610846565b606091505b5050505b50565b3373ffffffffffffffffffffffffffffffffffffffff1660008054906101000a900473ffffffffffffffffffffffffffffffffffffffff1673ffffffffffffffffffffffffffffffffffffffff16146108db576040517f08c379a00000000000000000000000000000000000000000000000000000000081526004016108d2906113a0565b60405180910390fd5b80600460008481526020019081526020016000208190555060058290806001815401808255809150506001900390600052602060002001600090919091909150555050565b610928610cfd565b6002600083815260200190815260200160002060405180610100016040529081600082015481526020016001820160009054906101000a900473ffffffffffffffffffffffffffffffffffffffff1673ffffffffffffffffffffffffffffffffffffffff1673ffffffffffffffffffffffffffffffffffffffff16815260200160028201548152602001600382015481526020016004820154815260200160058201548152602001600682015481526020016007820160009054906101000a900460ff1615151515815250509050919050565b3373ffffffffffffffffffffffffffffffffffffffff1660008054906101000a900473ffffffffffffffffffffffffffffffffffffffff1673ffffffffffffffffffffffffffffffffffffffff1614610a89576040517f08c379a0000000000000000000000000000000000000000000000000000000008152600401610a8090611432565b60405180910390fd5b8060026000848152602001908152602001600020600301819055505050565b6000600460008381526020019081526020016000205411610afe576040517f08c379a0000000000000000000000000000000000000000000000000000000008152600401610af59061149e565b60405180910390fd5b60405180610100016040528060015481526020013373ffffffffffffffffffffffffffffffffffffffff1681526020014281526020016201518083610b4391906114be565b42610b4e91906112b4565b815260200160046000848152602001908152602001600020548152602001348152602001610b8f600460008581526020019081526020016000205434610cda565b8152602001600115158152506002600060015481526020019081526020016000206000820151816000015560208201518160010160006101000a81548173ffffffffffffffffffffffffffffffffffffffff021916908373ffffffffffffffffffffffffffffffffffffffff16021790555060408201518160020155606082015181600301556080820151816004015560a0820151816005015560c0820151816006015560e08201518160070160006101000a81548160ff021916908315150217905550905050600360003373ffffffffffffffffffffffffffffffffffffffff1673ffffffffffffffffffffffffffffffffffffffff16815260200190815260200160002060015490806001815401808255809150506001900390600052602060002001600090919091909150556001806000828254610cd091906112b4565b9250508190555050565b60006127108284610ceb91906114be565b610cf5919061152f565b905092915050565b60405180610100016040528060008152602001600073ffffffffffffffffffffffffffffffffffffffff16815260200160008152602001600081526020016000815260200160008152602001600081526020016000151581525090565b600080fd5b6000819050919050565b610d7281610d5f565b8114610d7d57600080fd5b50565b600081359050610d8f81610d69565b92915050565b600060208284031215610dab57610daa610d5a565b5b6000610db984828501610d80565b91505092915050565b610dcb81610d5f565b82525050565b6000602082019050610de66000830184610dc2565b92915050565b600073ffffffffffffffffffffffffffffffffffffffff82169050919050565b6000610e1782610dec565b9050919050565b610e2781610e0c565b8114610e3257600080fd5b50565b600081359050610e4481610e1e565b92915050565b600060208284031215610e6057610e5f610d5a565b5b6000610e6e84828501610e35565b91505092915050565b600081519050919050565b600082825260208201905092915050565b6000819050602082019050919050565b610eac81610d5f565b82525050565b6000610ebe8383610ea3565b60208301905092915050565b6000602082019050919050565b6000610ee282610e77565b610eec8185610e82565b9350610ef783610e93565b8060005b83811015610f28578151610f0f8882610eb2565b9750610f1a83610eca565b925050600181019050610efb565b5085935050505092915050565b60006020820190508181036000830152610f4f8184610ed7565b905092915050565b60008060408385031215610f6e57610f6d610d5a565b5b6000610f7c85828601610e35565b9250506020610f8d85828601610d80565b9150509250929050565b610fa081610e0c565b82525050565b6000602082019050610fbb6000830184610f97565b92915050565b60008115159050919050565b610fd681610fc1565b82525050565b600061010082019050610ff2600083018b610dc2565b610fff602083018a610f97565b61100c6040830189610dc2565b6110196060830188610dc2565b6110266080830187610dc2565b61103360a0830186610dc2565b61104060c0830185610dc2565b61104d60e0830184610fcd565b9998505050505050505050565b6000806040838503121561107157611070610d5a565b5b600061107f85828601610d80565b925050602061109085828601610d80565b9150509250929050565b6110a381610e0c565b82525050565b6110b281610fc1565b82525050565b610100820160008201516110cf6000850182610ea3565b5060208201516110e2602085018261109a565b5060408201516110f56040850182610ea3565b5060608201516111086060850182610ea3565b50608082015161111b6080850182610ea3565b5060a082015161112e60a0850182610ea3565b5060c082015161114160c0850182610ea3565b5060e082015161115460e08501826110a9565b50505050565b60006101008201905061117060008301846110b8565b92915050565b600082825260208201905092915050565b7f6f6e6c7920706f736974696f6e2063726561746f72206d6f6469667920706f7360008201527f6974696f6e000000000000000000000000000000000000000000000000000000602082015250565b60006111e3602583611176565b91506111ee82611187565b604082019050919050565b60006020820190508181036000830152611212816111d6565b9050919050565b7f706f736974696f6e20697320636c6f7365640000000000000000000000000000600082015250565b600061124f601283611176565b915061125a82611219565b602082019050919050565b6000602082019050818103600083015261127e81611242565b9050919050565b7f4e487b7100000000000000000000000000000000000000000000000000000000600052601160045260246000fd5b60006112bf82610d5f565b91506112ca83610d5f565b92508282019050808211156112e2576112e1611285565b5b92915050565b600081905092915050565b50565b60006113036000836112e8565b915061130e826112f3565b600082019050919050565b6000611324826112f6565b9150819050919050565b7f4f6e6c79206f776e6572206d6179206d6f64696679207374616b696e6720706560008201527f72696f6400000000000000000000000000000000000000000000000000000000602082015250565b600061138a602483611176565b91506113958261132e565b604082019050919050565b600060208201905081810360008301526113b98161137d565b9050919050565b7f6f6e6c79206f776e6572206d6179206d6f6469667920756e6c6f636b2064617460008201527f6500000000000000000000000000000000000000000000000000000000000000602082015250565b600061141c602183611176565b9150611427826113c0565b604082019050919050565b6000602082019050818103600083015261144b8161140f565b9050919050565b7f4d617070696e67206e6f7420666f756e64000000000000000000000000000000600082015250565b6000611488601183611176565b915061149382611452565b602082019050919050565b600060208201905081810360008301526114b78161147b565b9050919050565b60006114c982610d5f565b91506114d483610d5f565b92508282026114e281610d5f565b915082820484148315176114f9576114f8611285565b5b5092915050565b7f4e487b7100000000000000000000000000000000000000000000000000000000600052601260045260246000fd5b600061153a82610d5f565b915061154583610d5f565b92508261155557611554611500565b5b82820490509291505056fea26469706673582212207b7cb0c89aa11aa1b673051ee36a9f164091a972cae750b0f64f99c71983fbc064736f6c63430008110033",
  "linkReferences": {},
  "deployedLinkReferences": {}
}